{
  "_format": "hh-sol-artifact-1",
  "contractName": "AccessContract",
  "sourceName": "contracts/accessContract.sol",
  "abi": [
    {
      "inputs": [],
      "stateMutability": "nonpayable",
      "type": "constructor"
    },
    {
      "inputs": [],
      "name": "InvalidInitialization",
      "type": "error"
    },
    {
      "inputs": [],
      "name": "NotInitializing",
      "type": "error"
    },
    {
      "inputs": [
        {
          "internalType": "address",
          "name": "owner",
          "type": "address"
        }
      ],
      "name": "OwnableInvalidOwner",
      "type": "error"
    },
    {
      "inputs": [
        {
          "internalType": "address",
          "name": "account",
          "type": "address"
        }
      ],
      "name": "OwnableUnauthorizedAccount",
      "type": "error"
    },
    {
      "inputs": [],
      "name": "ReentrancyGuardReentrantCall",
      "type": "error"
    },
    {
      "anonymous": false,
      "inputs": [
        {
          "indexed": false,
          "internalType": "uint256",
          "name": "resourceId",
          "type": "uint256"
        },
        {
          "indexed": true,
          "internalType": "address",
          "name": "buyer",
          "type": "address"
        },
        {
          "indexed": false,
          "internalType": "uint256",
          "name": "amountPaid",
          "type": "uint256"
        },
        {
          "indexed": false,
          "internalType": "uint256",
          "name": "purchasedAt",
          "type": "uint256"
        }
      ],
      "name": "AccessPurchased",
      "type": "event"
    },
    {
      "anonymous": false,
      "inputs": [
        {
          "indexed": false,
          "internalType": "uint64",
          "name": "version",
          "type": "uint64"
        }
      ],
      "name": "Initialized",
      "type": "event"
    },
    {
      "anonymous": false,
      "inputs": [
        {
          "indexed": true,
          "internalType": "address",
          "name": "previousOwner",
          "type": "address"
        },
        {
          "indexed": true,
          "internalType": "address",
          "name": "newOwner",
          "type": "address"
        }
      ],
      "name": "OwnershipTransferred",
      "type": "event"
    },
    {
      "anonymous": false,
      "inputs": [
        {
          "indexed": false,
          "internalType": "uint256",
          "name": "resourceId",
          "type": "uint256"
        },
        {
          "indexed": true,
          "internalType": "address",
          "name": "owner",
          "type": "address"
        },
        {
          "indexed": false,
          "internalType": "string",
          "name": "name",
          "type": "string"
        },
        {
          "indexed": false,
          "internalType": "string",
          "name": "description",
          "type": "string"
        },
        {
          "indexed": false,
          "internalType": "string",
          "name": "cid",
          "type": "string"
        },
        {
          "indexed": false,
          "internalType": "string",
          "name": "url",
          "type": "string"
        },
        {
          "indexed": false,
          "internalType": "string",
          "name": "serviceId",
          "type": "string"
        },
        {
          "indexed": false,
          "internalType": "uint256",
          "name": "price",
          "type": "uint256"
        },
        {
          "indexed": false,
          "internalType": "uint256",
          "name": "createdAt",
          "type": "uint256"
        },
        {
          "indexed": false,
          "internalType": "enum AccessContract.ResourceType",
          "name": "resourceType",
          "type": "uint8"
        }
      ],
      "name": "ResourceCreated",
      "type": "event"
    },
    {
      "anonymous": false,
      "inputs": [
        {
          "indexed": true,
          "internalType": "address",
          "name": "seller",
          "type": "address"
        },
        {
          "indexed": false,
          "internalType": "uint256",
          "name": "amount",
          "type": "uint256"
        }
      ],
      "name": "Withdrawal",
      "type": "event"
    },
    {
      "inputs": [
        {
          "internalType": "uint256",
          "name": "resourceId",
          "type": "uint256"
        }
      ],
      "name": "buyAccess",
      "outputs": [],
      "stateMutability": "payable",
      "type": "function"
    },
    {
      "inputs": [
        {
          "internalType": "address",
          "name": "",
          "type": "address"
        },
        {
          "internalType": "uint256",
          "name": "",
          "type": "uint256"
        }
      ],
      "name": "buyerAccess",
      "outputs": [
        {
          "internalType": "uint256",
          "name": "amountPaid",
          "type": "uint256"
        },
        {
          "internalType": "uint256",
          "name": "purchasedAt",
          "type": "uint256"
        }
      ],
      "stateMutability": "view",
      "type": "function"
    },
    {
      "inputs": [
        {
          "internalType": "string",
          "name": "name",
          "type": "string"
        },
        {
          "internalType": "string",
          "name": "description",
          "type": "string"
        },
        {
          "internalType": "string",
          "name": "cid",
          "type": "string"
        },
        {
          "internalType": "string",
          "name": "url",
          "type": "string"
        },
        {
          "internalType": "string",
          "name": "serviceId",
          "type": "string"
        },
        {
          "internalType": "uint256",
          "name": "price",
          "type": "uint256"
        },
        {
          "internalType": "enum AccessContract.ResourceType",
          "name": "resourceType",
          "type": "uint8"
        }
      ],
      "name": "createResource",
      "outputs": [],
      "stateMutability": "nonpayable",
      "type": "function"
    },
    {
      "inputs": [
        {
          "internalType": "uint256",
          "name": "resourceId",
          "type": "uint256"
        }
      ],
      "name": "emergencyDeactivateResource",
      "outputs": [],
      "stateMutability": "nonpayable",
      "type": "function"
    },
    {
      "inputs": [],
      "name": "getAllResourceIds",
      "outputs": [
        {
          "internalType": "uint256[]",
          "name": "",
          "type": "uint256[]"
        }
      ],
      "stateMutability": "view",
      "type": "function"
    },
    {
      "inputs": [],
      "name": "getAllResources",
      "outputs": [
        {
          "components": [
            {
              "internalType": "address",
              "name": "owner",
              "type": "address"
            },
            {
              "internalType": "string",
              "name": "name",
              "type": "string"
            },
            {
              "internalType": "string",
              "name": "description",
              "type": "string"
            },
            {
              "internalType": "string",
              "name": "cid",
              "type": "string"
            },
            {
              "internalType": "string",
              "name": "url",
              "type": "string"
            },
            {
              "internalType": "string",
              "name": "serviceId",
              "type": "string"
            },
            {
              "internalType": "uint256",
              "name": "price",
              "type": "uint256"
            },
            {
              "internalType": "bool",
              "name": "isActive",
              "type": "bool"
            },
            {
              "internalType": "enum AccessContract.ResourceType",
              "name": "resourceType",
              "type": "uint8"
            },
            {
              "internalType": "uint256",
              "name": "createdAt",
              "type": "uint256"
            }
          ],
          "internalType": "struct AccessContract.Resource[]",
          "name": "",
          "type": "tuple[]"
        }
      ],
      "stateMutability": "view",
      "type": "function"
    },
    {
      "inputs": [
        {
          "internalType": "uint256",
          "name": "resourceId",
          "type": "uint256"
        }
      ],
      "name": "getResource",
      "outputs": [
        {
          "components": [
            {
              "internalType": "address",
              "name": "owner",
              "type": "address"
            },
            {
              "internalType": "string",
              "name": "name",
              "type": "string"
            },
            {
              "internalType": "string",
              "name": "description",
              "type": "string"
            },
            {
              "internalType": "string",
              "name": "cid",
              "type": "string"
            },
            {
              "internalType": "string",
              "name": "url",
              "type": "string"
            },
            {
              "internalType": "string",
              "name": "serviceId",
              "type": "string"
            },
            {
              "internalType": "uint256",
              "name": "price",
              "type": "uint256"
            },
            {
              "internalType": "bool",
              "name": "isActive",
              "type": "bool"
            },
            {
              "internalType": "enum AccessContract.ResourceType",
              "name": "resourceType",
              "type": "uint8"
            },
            {
              "internalType": "uint256",
              "name": "createdAt",
              "type": "uint256"
            }
          ],
          "internalType": "struct AccessContract.Resource",
          "name": "",
          "type": "tuple"
        }
      ],
      "stateMutability": "view",
      "type": "function"
    },
    {
      "inputs": [
        {
          "internalType": "address",
          "name": "user",
          "type": "address"
        },
        {
          "internalType": "uint256",
          "name": "resourceId",
          "type": "uint256"
        }
      ],
      "name": "hasAccess",
      "outputs": [
        {
          "internalType": "bool",
          "name": "",
          "type": "bool"
        }
      ],
      "stateMutability": "view",
      "type": "function"
    },
    {
      "inputs": [],
      "name": "initialize",
      "outputs": [],
      "stateMutability": "nonpayable",
      "type": "function"
    },
    {
      "inputs": [],
      "name": "nextResourceId",
      "outputs": [
        {
          "internalType": "uint256",
          "name": "",
          "type": "uint256"
        }
      ],
      "stateMutability": "view",
      "type": "function"
    },
    {
      "inputs": [],
      "name": "owner",
      "outputs": [
        {
          "internalType": "address",
          "name": "",
          "type": "address"
        }
      ],
      "stateMutability": "view",
      "type": "function"
    },
    {
      "inputs": [],
      "name": "renounceOwnership",
      "outputs": [],
      "stateMutability": "nonpayable",
      "type": "function"
    },
    {
      "inputs": [
        {
          "internalType": "uint256",
          "name": "resourceId",
          "type": "uint256"
        }
      ],
      "name": "resourceExists",
      "outputs": [
        {
          "internalType": "bool",
          "name": "",
          "type": "bool"
        }
      ],
      "stateMutability": "view",
      "type": "function"
    },
    {
      "inputs": [
        {
          "internalType": "uint256",
          "name": "",
          "type": "uint256"
        }
      ],
      "name": "resourceIds",
      "outputs": [
        {
          "internalType": "uint256",
          "name": "",
          "type": "uint256"
        }
      ],
      "stateMutability": "view",
      "type": "function"
    },
    {
      "inputs": [
        {
          "internalType": "uint256",
          "name": "",
          "type": "uint256"
        }
      ],
      "name": "resources",
      "outputs": [
        {
          "internalType": "address",
          "name": "owner",
          "type": "address"
        },
        {
          "internalType": "string",
          "name": "name",
          "type": "string"
        },
        {
          "internalType": "string",
          "name": "description",
          "type": "string"
        },
        {
          "internalType": "string",
          "name": "cid",
          "type": "string"
        },
        {
          "internalType": "string",
          "name": "url",
          "type": "string"
        },
        {
          "internalType": "string",
          "name": "serviceId",
          "type": "string"
        },
        {
          "internalType": "uint256",
          "name": "price",
          "type": "uint256"
        },
        {
          "internalType": "bool",
          "name": "isActive",
          "type": "bool"
        },
        {
          "internalType": "enum AccessContract.ResourceType",
          "name": "resourceType",
          "type": "uint8"
        },
        {
          "internalType": "uint256",
          "name": "createdAt",
          "type": "uint256"
        }
      ],
      "stateMutability": "view",
      "type": "function"
    },
    {
      "inputs": [
        {
          "internalType": "address",
          "name": "",
          "type": "address"
        }
      ],
      "name": "sellerBalances",
      "outputs": [
        {
          "internalType": "uint256",
          "name": "",
          "type": "uint256"
        }
      ],
      "stateMutability": "view",
      "type": "function"
    },
    {
      "inputs": [
        {
          "internalType": "address",
          "name": "newOwner",
          "type": "address"
        }
      ],
      "name": "transferOwnership",
      "outputs": [],
      "stateMutability": "nonpayable",
      "type": "function"
    },
    {
      "inputs": [],
      "name": "version",
      "outputs": [
        {
          "internalType": "string",
          "name": "",
          "type": "string"
        }
      ],
      "stateMutability": "pure",
      "type": "function"
    },
    {
      "inputs": [],
      "name": "withdraw",
      "outputs": [],
      "stateMutability": "nonpayable",
      "type": "function"
    }
  ],
  "bytecode": "0x608080604052346100b8577ff0c57e16840df040f15088dc2f81fe391c3923bec73e23a9662efc9c229c6a009081549060ff8260401c166100a957506001600160401b036002600160401b031982821601610064575b604051611bad90816100be8239f35b6001600160401b031990911681179091556040519081527fc7f505b2f371ae2175ee4913f4499e1f2633a7b5936321eed1cdaeb6115181d290602090a1388080610055565b63f92ee8a960e01b8152600490fd5b600080fdfe6080604052600436101561001257600080fd5b60003560e01c80631e8fca2d1461155e578063244d6daa146114535780633ccfd60b146112f15780634a308b09146112ba57806350a1a264146110d157806351b070e81461108057806354fd4d5014611036578063607eb4e414610ffc5780636266565814610653578063715018a6146105e95780638129fc1c1461048a57806387e561a1146104535780638da5cb5b1461041d578063a13268d8146103e7578063baace33e14610222578063c6530e41146101f1578063d9f4badd1461013b578063efad29bf1461011d5763f2fde38b146100ed57600080fd5b3461011857602036600319011261011857610116610109611898565b610111611a7f565b611a0b565b005b600080fd5b34610118576000366003190112610118576020600054604051908152f35b3461011857600036600319011261011857604051806004548083526020809301809160046000527f8a35acfbc15ff81a39ae7d344fd709f28e8600b4aa8c65c6b64bfe7fe36bd19b9060005b868282106101dd57868661019d828803836117d2565b604051928392818401908285525180915260408401929160005b8281106101c657505050500390f35b8351855286955093810193928101926001016101b7565b835485529093019260019283019201610187565b3461011857604036600319011261011857602061021861020f611898565b60243590611ab8565b6040519015158152f35b346101185760003660031901126101185760045461023f816119e0565b61024c60405191826117d2565b818152610258826119e0565b60209290601f19018360005b8281106103d15750505060005b8181106102d95750506040519082820192808352815180945260408301938160408260051b8601019301916000955b8287106102ad5785850386f35b9091929382806102c9600193603f198a820301865288516116af565b96019201960195929190926102a0565b6102e2816118db565b919054600392831b1c6000526001808652604060002061031c604051926103088461179b565b82546001600160a01b0316845282016117f3565b8783015261033d6002946103318684016117f3565b604085015282016117f3565b606083015261034e600482016117f3565b608083015261035f600582016117f3565b60a0830152600681015460c083015260078101549060ff808316151560e0850152600892831c16948510156103bb5760019461010084015201546101208201526103a982866119f7565b526103b481856119f7565b5001610271565b634e487b7160e01b600052602160045260246000fd5b6103d9611928565b828287010152018490610264565b34610118576020366003190112610118576004356000526001602052602060018060a01b03604060002054161515604051908152f35b3461011857600036600319011261011857600080516020611b58833981519152546040516001600160a01b039091168152602090f35b34610118576020366003190112610118576004356004548110156101185761047c6020916118db565b90546040519160031b1c8152f35b34610118576000366003190112610118577ff0c57e16840df040f15088dc2f81fe391c3923bec73e23a9662efc9c229c6a00805460ff8160401c1615906001600160401b038116801590816105e1575b60011490816105d7575b1590816105ce575b506105bc5767ffffffffffffffff19811660011783558161059d575b50610511611b16565b610519611b16565b61052233611a0b565b61052a611b16565b610532611b16565b60017f9b779b17422d0df92223018b32b4d1fa46e071723d6817e2486d003becc55f00556000805561056057005b68ff00000000000000001981541690557fc7f505b2f371ae2175ee4913f4499e1f2633a7b5936321eed1cdaeb6115181d2602060405160018152a1005b68ffffffffffffffffff19166801000000000000000117825582610508565b60405163f92ee8a960e01b8152600490fd5b905015846104ec565b303b1591506104e4565b8391506104da565b3461011857600036600319011261011857610602611a7f565b600080516020611b5883398151915280546001600160a01b031981169091556000906001600160a01b03167f8be0079c531659141344cd1fd0a4f28419497f9722a3daafe3b4186f6b6457e08280a3005b346101185760e0366003190112610118576004356001600160401b038111610118576106839036906004016118ae565b906024356001600160401b038111610118576106a39036906004016118ae565b9160449283356001600160401b038111610118576106c59036906004016118ae565b60649485356001600160401b038111610118576106e69036906004016118ae565b9490956084356001600160401b038111610118576107089036906004016118ae565b989099600260c4351015610118578b15610fc45760c88c11610f83576105dc8411610f3357818611610ef2576101f48811610eb157818a11610e645760a43515610e23575050600054998a60005260016020526040600020336bffffffffffffffffffffffff60a01b8254161781556001600160401b038211610a49576107926001820154611761565b601f8111610ddc575b50816000601f8211600114610d6e57600091610d63575b508260011b906000198460031b1c19161760018201555b6001600160401b038411610a49576107e46002820154611761565b601f8111610d1c575b50836000601f8211600114610cae57600091610ca3575b508460011b906000198660031b1c19161760028201555b6001600160401b038611610a49576108366003820154611761565b601f8111610c5c575b50856000601f8211600114610bee57600091610be3575b508660011b906000198860031b1c19161760038201555b6001600160401b038811610a49576108886004820154611761565b601f8111610b9c575b50876000601f8211600114610b2c57600091610b21575b508860011b906000198a60031b1c19161760048201555b6001600160401b038a11610a49576108da6005820154611761565b601f8111610ada575b50896000601f8211600114610a6a57600091610a5f575b508a60011b906000198c60031b1c19161760058201555b60a4356006820155600781016001815461ff0060c43560081b169061ffff19161717905560084291015560045468010000000000000000811015610a49576001810160045561095f906118db565b81548d8260031b1b916000199060031b1b19161790556040519a610120908c528060208d01528b0190610991926119bf565b9089820360408b01526109a3926119bf565b9087820360608901526109b5926119bf565b9085820360808701526109c7926119bf565b9083820360a08501526109d9926119bf565b60a43560c08301524260e0830152906109f8610100820160c4356116a2565b803392037fd00b0eccef06959b19bd218ebba7e050d53825f9c816c2ef6c16f5a41f71c2ed91a26000546000198114610a3357600101600055005b634e487b7160e01b600052601160045260246000fd5b634e487b7160e01b600052604160045260246000fd5b90508b01358d6108fa565b90506005820160005260206000209060005b8d601f198e168210610ac25750508b601f19811610610aa8575b505060018a811b016005820155610911565b8c013560001960038d901b60f8161c191690558c80610a96565b60018394602093948493013581550193019101610a7c565b600582016000526020600020601f8c0160051c810160208d10610b1a575b601f830160051c82018110610b0e5750506108e3565b60008155600101610af8565b5080610af8565b90508901358d6108a8565b90506004820160005260206000209060005b8b601f198c168210610b8457505089601f19811610610b6a575b5050600188811b0160048201556108bf565b8a013560001960038b901b60f8161c191690558c80610b58565b60018394602093948493013581550193019101610b3e565b600482016000526020600020601f8a0160051c810160208b10610bdc575b601f830160051c82018110610bd0575050610891565b60008155600101610bba565b5080610bba565b90508701358d610856565b90506003820160005260206000209060005b601f1989168110610c44575087601f19811610610c2a575b5050600186811b01600382015561086d565b880135600019600389901b60f8161c191690558c80610c18565b9091602060018192858d013581550193019101610c00565b600382016000526020600020601f880160051c810160208910610c9c575b601f830160051c82018110610c9057505061083f565b60008155600101610c7a565b5080610c7a565b90508501358d610804565b9050601f19851690600283016000528560206000209260005b818110610d01575010610ce7575b5050600184811b01600282015561081b565b860135600019600387901b60f8161c191690558c80610cd5565b89840135855560019094019360209384019389935001610cc7565b600282016000526020600020601f860160051c810160208710610d5c575b601f830160051c82018110610d505750506107ed565b60008155600101610d3a565b5080610d3a565b90508301358d6107b2565b9050601f19831690600183016000528360206000209260005b818110610dc1575010610da7575b5050600182811b0160018201556107c9565b840135600019600385901b60f8161c191690558c80610d95565b87840135855560019094019360209384019387935001610d87565b600182016000526020600020601f840160051c810160208510610e1c575b601f830160051c82018110610e1057505061079b565b60008155600101610dfa565b5080610dfa565b7f5072696365206d7573742062652067726561746572207468616e2030000000006040519162461bcd60e51b835260206004840152601c6024840152820152fd5b61732960f01b6084927f53657276696365496420746f6f206c6f6e6720286d61782031303020627974656040519362461bcd60e51b85526020600486015260226024860152840152820152fd5b7f55524c20746f6f206c6f6e6720286d61782035303020627974657329000000006040519162461bcd60e51b835260206004840152601c6024840152820152fd5b7f43494420746f6f206c6f6e6720286d61782031303020627974657329000000006040519162461bcd60e51b835260206004840152601c6024840152820152fd5b64797465732960d81b6084927f4465736372697074696f6e20746f6f206c6f6e6720286d6178203135303020626040519362461bcd60e51b85526020600486015260256024860152840152820152fd5b7f4e616d6520746f6f206c6f6e6720286d617820323030206279746573290000006040519162461bcd60e51b835260206004840152601d6024840152820152fd5b734e616d652063616e6e6f7420626520656d70747960601b6040519162461bcd60e51b83526020600484015260146024840152820152fd5b34610118576020366003190112610118576001600160a01b0361101d611898565b1660005260036020526020604060002054604051908152f35b346101185760003660031901126101185761107c604051611056816117b7565b6005815264312e302e3160d81b6020820152604051918291602083526020830190611662565b0390f35b34610118576040366003190112610118576001600160a01b036110a1611898565b16600052600260205260406000206024356000526020526040806000206001815491015482519182526020820152f35b6020806003193601126101185760043590816000526001815260406000206040516110fb8161179b565b81546001600160a01b03908116825291611117600182016117f3565b84830152611127600282016117f3565b6040830152611138600382016117f3565b6060830152611149600482016117f3565b608083015261115a600582016117f3565b60a083015260068101549060c0830191825260078101549060ff60e08501928181161515845260081c169060028210156103bb5760089161010086015201546101208401526111ad848451161515611973565b511561127f57513403611246576040516111c6816117b7565b348152600184820142815233600052600286526040600020876000528652604060002092518355519101555116600052600381526040600020805490348201809211610a33575560405191825234908201524260408201527f79f205d05e1d9f99a7e4a6d2e5d9fc75c372c7033d239fefe5e5dec18d472bd960603392a2005b60405162461bcd60e51b8152600481018490526011602482015270125b98dbdc9c9958dd081c185e5b595b9d607a1b6044820152606490fd5b60405162461bcd60e51b81526004810185905260136024820152725265736f75726365206e6f742061637469766560681b6044820152606490fd5b34610118576020366003190112610118576112d3611a7f565b6004356000908152600160205260409020600701805460ff19169055005b34610118576000366003190112610118577f9b779b17422d0df92223018b32b4d1fa46e071723d6817e2486d003becc55f00600281541461144157600281553360005260209060038252604060002054801561140657336000526003835260006040812055600080808084335af13d15611401573d6001600160401b038111610a49576040519061138b601f8201601f19168701836117d2565b81526000853d92013e5b156113ca577f7fcf532c15f0a6db0bd6d0e038bea71d30d808c7d98cb3bf7268a95bf5081b656001936040519283523392a255005b60405162461bcd60e51b815260048101849052600f60248201526e151c985b9cd9995c8819985a5b1959608a1b6044820152606490fd5b611395565b60405162461bcd60e51b81526004810184905260136024820152724e6f7468696e6720746f20776974686472617760681b6044820152606490fd5b604051633ee5aeb560e01b8152600490fd5b34610118576020366003190112610118576004356000526001602052604060002060018060a01b0381541661148a600183016117f3565b91611497600282016117f3565b6115546114a6600384016117f3565b926115326114b6600483016117f3565b6115246114c5600585016117f3565b9161151660068601549861150860086007890154980154996114fa6040519e8f9e8f6101409181528160208201520190611662565b8d810360408f015290611662565b908b820360608d0152611662565b9089820360808b0152611662565b9087820360a0890152611662565b9360c086015260ff8116151560e086015260ff61010086019160081c166116a2565b6101208301520390f35b3461011857602080600319360112610118576004359061157c611928565b5060008281526001825260409020546001600160a01b0392906115a29084161515611973565b600052600181526040600020604051926115bb8461179b565b81541683526115cc600182016117f3565b828401526115dc600282016117f3565b60408401526115ed600382016117f3565b60608401526115fe600482016117f3565b608084015261160f600582016117f3565b60a0840152600681015460c084015260ff6007820154818116151560e086015260081c169060028210156103bb57600891610100850152015461012083015261107c6040519282849384528301906116af565b919082519283825260005b84811061168e575050826000602080949584010152601f8019910116010190565b60208183018101518483018201520161166d565b9060028210156103bb5752565b9061172a6117186117066116f46116e261014060018060a01b038851168752602088015190806020890152870190611662565b60408701518682036040880152611662565b60608601518582036060870152611662565b60808501518482036080860152611662565b60a084015183820360a0850152611662565b9160c081015160c083015260e0810151151560e083015261175461010080830151908401906116a2565b6101208091015191015290565b90600182811c92168015611791575b602083101461177b57565b634e487b7160e01b600052602260045260246000fd5b91607f1691611770565b61014081019081106001600160401b03821117610a4957604052565b604081019081106001600160401b03821117610a4957604052565b90601f801991011681019081106001600160401b03821117610a4957604052565b9060405191826000825461180681611761565b908184526020946001916001811690816000146118765750600114611837575b505050611835925003836117d2565b565b600090815285812095935091905b81831061185e5750506118359350820101388080611826565b85548884018501529485019487945091830191611845565b9250505061183594925060ff191682840152151560051b820101388080611826565b600435906001600160a01b038216820361011857565b9181601f84011215610118578235916001600160401b038311610118576020838186019501011161011857565b6004548110156119125760046000527f8a35acfbc15ff81a39ae7d344fd709f28e8600b4aa8c65c6b64bfe7fe36bd19b0190600090565b634e487b7160e01b600052603260045260246000fd5b604051906119358261179b565b6000610120838281526060806020830152806040830152808083015280608083015260a08201528260c08201528260e0820152826101008201520152565b1561197a57565b60405162461bcd60e51b815260206004820152601760248201527f5265736f7572636520646f6573206e6f742065786973740000000000000000006044820152606490fd5b908060209392818452848401376000828201840152601f01601f1916010190565b6001600160401b038111610a495760051b60200190565b80518210156119125760209160051b010190565b6001600160a01b03908116908115611a6657600080516020611b5883398151915280546001600160a01b031981168417909155167f8be0079c531659141344cd1fd0a4f28419497f9722a3daafe3b4186f6b6457e0600080a3565b604051631e4fbdf760e01b815260006004820152602490fd5b600080516020611b58833981519152546001600160a01b03163303611aa057565b60405163118cdaa760e01b8152336004820152602490fd5b6000828152600160205260408120546001600160a01b0392831692168214611b0e57602092604092825260028452828220908252835220600160405191611afe836117b7565b8054835201549182910152151590565b505050600190565b60ff7ff0c57e16840df040f15088dc2f81fe391c3923bec73e23a9662efc9c229c6a005460401c1615611b4557565b604051631afcd79f60e31b8152600490fdfe9016d09d72d40fdae2fd8ceac6b6234c7706214fd39c1cd1e609a0528c199300a2646970667358221220988327fa82bcca1b9cd673cfe1856643934ca9d6fdd10866394ae82dde87ad0564736f6c63430008180033",
  "linkReferences": {},
  "deployedLinkReferences": {}
}